{
	"_format": "hh-sol-artifact-1",
	"contractName": "GN_Contract",
	"sourceName": "contracts/GMGN.sol",
	"abi": [
		{
			"inputs": [],
			"stateMutability": "nonpayable",
			"type": "constructor"
		},
		{
			"anonymous": false,
			"inputs": [
				{
					"indexed": true,
					"internalType": "address",
					"name": "from",
					"type": "address"
				},
				{
					"indexed": false,
					"internalType": "uint256",
					"name": "timestamp",
					"type": "uint256"
				},
				{
					"indexed": false,
					"internalType": "string",
					"name": "message",
					"type": "string"
				}
			],
			"name": "NewGN",
			"type": "event"
		},
		{
			"inputs": [],
			"name": "getAllGNs",
			"outputs": [
				{
					"components": [
						{
							"internalType": "address",
							"name": "gnr",
							"type": "address"
						},
						{
							"internalType": "uint256",
							"name": "timestamp",
							"type": "uint256"
						},
						{
							"internalType": "string",
							"name": "message",
							"type": "string"
						}
					],
					"internalType": "struct GN_Contract.GN[]",
					"name": "",
					"type": "tuple[]"
				}
			],
			"stateMutability": "view",
			"type": "function"
		},
		{
			"inputs": [
				{
					"internalType": "string",
					"name": "_message",
					"type": "string"
				}
			],
			"name": "gn",
			"outputs": [],
			"stateMutability": "nonpayable",
			"type": "function"
		}
	],
	"bytecode": "0x608060405234801561001057600080fd5b5061083d806100206000396000f3fe608060405234801561001057600080fd5b50600436106100365760003560e01c806337b548bf1461003b5780639fc75d2214610057575b600080fd5b610055600480360381019061005091906103f0565b610075565b005b61005f610194565b60405161006c91906105a9565b60405180910390f35b600060405180606001604052803373ffffffffffffffffffffffffffffffffffffffff16815260200142815260200183815250908060018154018082558091505060019003906000526020600020906003020160009091909190915060008201518160000160006101000a81548173ffffffffffffffffffffffffffffffffffffffff021916908373ffffffffffffffffffffffffffffffffffffffff16021790555060208201518160010155604082015181600201908051906020019061013e9291906102e5565b5050503373ffffffffffffffffffffffffffffffffffffffff167fa1cb0b1740765c1174b334d3f35e9d1d5d407713cfd9f958bb5d545e78faa57842836040516101899291906105cb565b60405180910390a250565b60606000805480602002602001604051908101604052809291908181526020016000905b828210156102dc57838290600052602060002090600302016040518060600160405290816000820160009054906101000a900473ffffffffffffffffffffffffffffffffffffffff1673ffffffffffffffffffffffffffffffffffffffff1673ffffffffffffffffffffffffffffffffffffffff1681526020016001820154815260200160028201805461024b90610735565b80601f016020809104026020016040519081016040528092919081815260200182805461027790610735565b80156102c45780601f10610299576101008083540402835291602001916102c4565b820191906000526020600020905b8154815290600101906020018083116102a757829003601f168201915b505050505081525050815260200190600101906101b8565b50505050905090565b8280546102f190610735565b90600052602060002090601f016020900481019282610313576000855561035a565b82601f1061032c57805160ff191683800117855561035a565b8280016001018555821561035a579182015b8281111561035957825182559160200191906001019061033e565b5b509050610367919061036b565b5090565b5b8082111561038457600081600090555060010161036c565b5090565b600061039b61039684610620565b6105fb565b9050828152602081018484840111156103b357600080fd5b6103be8482856106f3565b509392505050565b600082601f8301126103d757600080fd5b81356103e7848260208601610388565b91505092915050565b60006020828403121561040257600080fd5b600082013567ffffffffffffffff81111561041c57600080fd5b610428848285016103c6565b91505092915050565b600061043d838361053b565b905092915050565b61044e816106b7565b82525050565b600061045f82610661565b6104698185610684565b93508360208202850161047b85610651565b8060005b858110156104b757848403895281516104988582610431565b94506104a383610677565b925060208a0199505060018101905061047f565b50829750879550505050505092915050565b60006104d48261066c565b6104de8185610695565b93506104ee818560208601610702565b6104f7816107f6565b840191505092915050565b600061050d8261066c565b61051781856106a6565b9350610527818560208601610702565b610530816107f6565b840191505092915050565b60006060830160008301516105536000860182610445565b506020830151610566602086018261058b565b506040830151848203604086015261057e82826104c9565b9150508091505092915050565b610594816106e9565b82525050565b6105a3816106e9565b82525050565b600060208201905081810360008301526105c38184610454565b905092915050565b60006040820190506105e0600083018561059a565b81810360208301526105f28184610502565b90509392505050565b6000610605610616565b90506106118282610767565b919050565b6000604051905090565b600067ffffffffffffffff82111561063b5761063a6107c7565b5b610644826107f6565b9050602081019050919050565b6000819050602082019050919050565b600081519050919050565b600081519050919050565b6000602082019050919050565b600082825260208201905092915050565b600082825260208201905092915050565b600082825260208201905092915050565b60006106c2826106c9565b9050919050565b600073ffffffffffffffffffffffffffffffffffffffff82169050919050565b6000819050919050565b82818337600083830152505050565b60005b83811015610720578082015181840152602081019050610705565b8381111561072f576000848401525b50505050565b6000600282049050600182168061074d57607f821691505b6020821081141561076157610760610798565b5b50919050565b610770826107f6565b810181811067ffffffffffffffff8211171561078f5761078e6107c7565b5b80604052505050565b7f4e487b7100000000000000000000000000000000000000000000000000000000600052602260045260246000fd5b7f4e487b7100000000000000000000000000000000000000000000000000000000600052604160045260246000fd5b6000601f19601f830116905091905056fea2646970667358221220c260255d65dba374e17faaf2dccbc126ef450ace248296876a8f76501a14930e64736f6c63430008040033",
	"linkReferences": {},
	"deployedLinkReferences": {}
}